:020000040000FA
:10000000500800206D020000710200007302000021
:10001000750200007502000075020000000000007B
:100020000000000000000000000000007502000059
:10003000750200000000000075020000750200005B
:1000400075020000750200007502000075020000D4
:1000500075020000750200007502000075020000C4
:1000600075020000750200007502000075020000B4
:1000700075020000750200007502000075020000A4
:100080007502000075020000750200007502000094
:100090007502000075020000750200007502000084
:1000A0007502000075020000750200007502000074
:1000B0007502000075020000750200007502000064
:1000C00075020000F50E00007502000075020000C8
:1000D0007502000075020000750200007502000044
:1000E0007502000075020000750200007502000034
:1000F0007502000075020000750200007502000024
:100100007502000075020000750200007502000013
:100110007502000075020000750200007502000003
:1001200075020000750200007502000075020000F3
:1001300075020000750200007502000075020000E3
:1001400000000000000000000000000000000000AF
:1001500075020000750200007502000075020000C3
:10016000000000000000000000000000000000008F
:10017000000000000000000000000000000000007F
:10018000000000000000000000000000000000006F
:10019000000000000000000000000000000000005F
:1001A000000000000000000000000000000000004F
:1001B0007502000075020000750200007502000063
:1001C0007502000075020000750200007502000053
:1001D0007502000075020000750200007502000043
:1001E0007502000075020000750200007502000033
:1001F0007502000075020000750200007502000023
:100200007502000075020000750200000000000089
:100210007502000075020000750200007502000002
:1002200075020000750200007502000075020000F2
:1002300075020000750200007502000075020000E2
:1002400075020000750200007502000075020000D2
:1002500075020000750200007502000075020000C2
:1002600075020000750200007502000000F004B87D
:10027000FEE7FEE7FEE70000DFF80CD000F01EF816
:100280000048004751170000500800200138FDD1F8
:1002900070470000EFF3108072B67047EFF31080E4
:1002A0007047EFF3108062B6704730BF704780F33D
:1002B00011887047EFF3118070470000064C074D1E
:1002C00006E0E06840F0010394E807009847103426
:1002D000AC42F6D3FFF7D4FF981E0000B81E000012
:1002E00070B501EB020410F8015B15F0070301D1B2
:1002F00010F8013B2A1106D110F8012B03E010F889
:10030000016B01F8016B5B1EF9D12B0705D40023AB
:10031000521E0FD401F8013BFAE710F8013B02F13D
:100320000202A1EB030303E013F8015B01F8015B98
:10033000521EF9D5A142D6D3002070BDF0B50746B4
:100340001C4615460E462A2001F0DCF9C7F30F20A3
:1003500001F0EAF9F8B201F0E7F9C5F30F2001F076
:10036000E3F9E8B201F0E0F92B2001F0CBF9C6F394
:100370000F2001F0D9F9F0B201F0D6F9C4F30F2043
:1003800001F0D2F9E0B201F0CFF9BDE8F0402C2045
:1003900001F0B8B90248016841F47001016070478A
:1003A00088ED00E00248016841F04041016070477B
:1003B00034EF00E0D0F8003412F0010F14BF0B430B
:1003C0008B43C0F8003412F0020FD0F8202414BF81
:1003D000114322EA0101C0F820147047D0F800C58B
:1003E00012F0010F14BF4CEA010C2CEA010CC0F80A
:1003F00000C5D0F804C512F0020F14BF4CEA010C7E
:100400002CEA010CC0F804C5D0F808C512F0040F9E
:1004100014BF4CEA010C2CEA010CC0F808C512F01C
:10042000080FD0F8182514BF0A438A43C0F81825CE
:10043000D0F80C2513F0010F14BF0A438A43C0F80B
:100440000C25D0F8102513F0020F14BF0A438A437D
:10045000C0F81025D0F8142513F0040F14BF0A4378
:100460008A43C0F81425D0F81C2513F0080F14BFD8
:100470000A438A43C0F81C25D0F82825002B0CBF5E
:10048000114322EA0101C0F8281570470F4AC0F352
:100490000741D26E01238B401A420D4A1ABF02EB6C
:1004A000C1014A6852F83120C0F3072102F22C53EF
:1004B000D2F82C254FF00F0C0CFA01FC00F00F00C5
:1004C00022EA0C02884010431860704700E00F4099
:1004D000481C000030B504460D460222FFF76AFFB3
:1004E00029462046BDE8304008230122FFF776BFA9
:1004F000002200298CBF064B704703EB820CDCF80E
:1005000030C040F822C0521C8A42F6D37047000027
:1005100000C00F402DE9F04106460D1E4FF00004CB
:100520008CBF074FBDE8F08156F8240007EB84012B
:10053000086300F037F8641CAC42F5D3BDE8F081E5
:1005400000C00F400348016941F04001016100F023
:1005500029B8000000C00F40034901280CBFC8693A
:10056000886900F00F00704700C00F400248006922
:10057000C0F380107047000000C00F4003480169BD
:1005800041F00201016100F00DB8000000C00F4011
:1005900003490A6922F406721043086100F002B8A8
:1005A00000C00F400948006809490840A0F1805187
:1005B000B1F5803118BF074803D107480068FFF73D
:1005C00065BE016911F0004FFBD0704700E00F409D
:1005D0000000FF7000C00F400406002010B5022884
:1005E00016D0032818BF10BD134800F05BFC134859
:1005F000FFF74CFF1248FFF749FFC0211148FFF7F2
:1006000069FFBDE810404FF41651032000F0F5BC1F
:100610000D4800F047FC0D48FFF738FF0C48FFF786
:1006200035FF30210B48FFF755FFBDE810404FF470
:10063000E131022000F0E1BC0400002001180200BA
:10064000011C020000600040400000200110060074
:10065000011406000060024010B5FFF71BFEC0B297
:1006600010BD10B5FFF71DFEC0B210BD10B54FF0A4
:100670008070406C816908488847084C01220A2331
:1006800011462046FFF7AAFE20460022BDE8104092
:100690000121FFF78FBE00004000002000600240F3
:1006A00030B505462A2001F02DF8002001F03CF875
:1006B000002001F039F8012001F036F8DF2001F0C8
:1006C00033F82B2001F01EF8002001F02DF8002057
:1006D00001F02AF8012001F027F80F2001F024F89A
:1006E0002C2001F00FF82C2001F00CF800242846F3
:1006F00001F01AF8641CB4F5FF3FF8D330BD0000D8
:100700002DE9F04F0026A2EB00085F1A83B03546B2
:1007100082468946B8F1000FC8BF012007DC0FBF31
:1007200000204FF0FF30C8F10008019000D1019087
:10073000002FC8BF012006DC0FBF00204FF0FF30A4
:100740007F42009000D10090B845CCBF44463C4663
:100750004FF0000B601C0028AEBF029003B0BDE854
:10076000F08F4B46524619461046FFF7E7FD0D48FD
:10077000008880B200F0D8FF46443D44A64202DD26
:100780000198361B8244A54202DD00982D1B81444E
:100790000BF101001FFA80FB02988345E1DD03B0F5
:1007A000BDE8F08F00000020F0B51C4615460E464F
:1007B00007468BB292B289B280B2FFF7A1FFA3B213
:1007C000BAB2B1B2B8B2FFF79BFFA3B2AAB2A1B25C
:1007D000B8B2FFF795FFA3B2AAB2B1B2A8B2BDE812
:1007E000F040FFF78DBF00002DE9F04F8146314802
:1007F0001C468B460768B9F5E87F28BFBDE8F08F37
:10080000BBF1FF0F88BFBDE8F08FA2F1200000F020
:10081000FF080BF10F0309F107024846FFF78EFDB1
:10082000DFF894A0002C4FF0000608BFDFF884909A
:100830001CD106EB081000251AF8004014F0010F37
:1008400012BFC9F80070D9F80400C9F80000B9F85F
:10085000000080B200F068FF681C6408C5B2082D73
:10086000ECD3701CC6B2102EE3D31EE0124806EB88
:1008700008110024455C0BEB060A15F0010F0BD0A4
:1008800009EB0400514653460246FFF757FD09485D
:10089000008880B200F048FF601C6D08C4B2082CCC
:1008A000EBD3701CC6B2102EE0D302480760BDE83F
:1008B000F08F0000000000200800002070B5054601
:1008C000107814460E46002808BF70BD2278A12A71
:1008D000FCD8002331462846FFF786FF14F8010FA5
:1008E00008350028F2D170BD70B54FF08074606C8F
:1008F000816908488847206A074D0421C26B284651
:100900009047216A2846CA6B08219047BDE870408D
:1009100000F0B8B802000020005000402DE9F0417E
:100920004FF080741F4D606C816928468847206AAB
:100930001D4E0821826B3046904741F28831481E97
:100940000104090CFBD1206A0422114603683046D9
:10095000984741F28831481E0104090CFBD1206AF6
:1009600008213746C26A30469047002814BF012646
:100970000026206A00220421036838469847606CEC
:10098000816928468847206A0821C26B384690470B
:1009900041F28830401E0004000CFBD13046BDE817
:1009A000F081000002000020005000402DE9F041DD
:1009B0001A4F054600244FF0807615F0800F306AFC
:1009C000036804D0082211463846984703E0002205
:1009D0000821384698476806050E306A04221146F9
:1009E00003683846984741F28831481E0104090CD3
:1009F000FBD1306A0022042103683846984741F24F
:100A00008831481E0104090CFBD1601CC4B2082CBB
:100A1000D3D3BDE8F041FFF781BF00000050004094
:100A200070B54FF08074164D206A08221146036895
:100A300028469847206A04221146036828469847AA
:100A400041F28831491E0904090CFBD1206A0022B9
:100A5000082103682846984741F28831491E090455
:100A6000090CFBD1206A002204210368284698471C
:100A700041F28830401E0004000CFBD170BD000024
:100A80000050004070B54FF08074164D206A00226F
:100A90000421036828469847206A00220821036839
:100AA0002846984741F28831491E0904090CFBD1B8
:100AB000206A0422114603682846984741F288318B
:100AC000491E0904090CFBD1206A0822114603685B
:100AD0002846984741F28830401E0004000CFBD1A4
:100AE00070BD00000050004070B540060D46040E79
:100AF000FFF796FF2046FFF759FF2846FFF756FFFE
:100B0000BDE87040FFF7BEBFDFF800C230B4DCF8CC
:100B10006020DCF8701011F0004F14BF01F070007D
:100B200002F030007A4C302808BF47F2305065D0D0
:100B300007DA98B1774D784B102816D020280AD1C3
:100B400038E0602808BF4FF4800057D0702808BFF5
:100B50004FF4004052D030BC002070476F4B02F47D
:100B6000F86003EB1010006848E0DCF8000010F0BB
:100B7000E04F1BD0DCF800002040B0F1805F15D0C2
:100B8000DCF800002040A84204D1DCF8000080B26C
:100B900002280DD0DCF800002040984204D1DCF897
:100BA00000000004000C03D05D4827E05D4825E00C
:100BB0005D4823E0DCF8000010F0E04F1BD0DCF8CB
:100BC00000002040B0F1805F15D0DCF8000020402C
:100BD000A84204D1DCF8000080B202280DD0DCF875
:100BE00000002040984204D1DCF800000004000C12
:100BF00003D04E4802E04E4800E04E4811F0004F4E
:100C000002D011F4006F05D001F0004302F400653A
:100C10002B4345D1DCF800302340A3F18055B5F5D6
:100C2000A0251AD1DCF86031DCF864C10CF01F0497
:100C3000CCF3042C641C0CF1010C14FB0CFC4FEAEB
:100C40004C0CB0FBFCF0C3F3090C0CFB00FCC3F331
:100C5000892358430CEB902020E0DCF86430DCF86A
:100C6000005015F0E04F36D0DCF800C00CEA040C60
:100C7000BCF1805F2FD04FEAC36C4FEA9C6CC3F38A
:100C800048140CF1020C6043B0FBFCF013F4804FED
:100C900018BF400813F4004F18BF800842F48002C8
:100CA00012F4800F04BF30BC704711F0004F25D004
:100CB00011F0804F08D011F4006F17D001F00043FD
:100CC00002F400621A4311D0C1F3C551491CB0FBB4
:100CD000F1F030BC7047C3F3481C0CF1020C00FB70
:100CE0000CF003F01F0C0CF1020CCDE74000C1F337
:100CF0008651491CB0FBF1F030BC7047C2F3C351C0
:100D0000491CB0FBF1F030BC7047000000E00F4020
:100D10000000FF700000011000000310001D000023
:100D20000024F400C0E1E400001BB70000093D000E
:100D300070383900C0C62D002DE9F041DFF8508130
:100D40000446D8F8000010F0E04F06D0D8F80000B4
:100D500050490840B0F1805F04D114F0004F18BF33
:100D6000BDE8F081D8F86010D8F8700021F4800157
:100D700041F4006540F40066C8F86050C8F870603F
:100D800015F0020F02D014F0020F04D025EA04007F
:100D900010F0010F16D064F003000540C8F8605051
:100DA00016F0004F07D006F07000302859D07020A0
:100DB000B04356D002E03020A84352D04FF4002078
:100DC000FFF764FA25F4FE6004F4FE6141EA0007CF
:100DD000314926F0700020F000402140084304F023
:100DE000080140EAC105C8F86070C8F870501020CA
:100DF000FFF74CFA27F4405004F44051014325F426
:100E0000005004F4005210434022C8F8582010F05B
:100E1000004F08BFC8F86010C8F8700018BFC8F8C5
:100E2000601021F003011D4A21F0F86122401143B6
:100E300020F0FC5004F0FC52104314F0804F08BF27
:100E400020F0804206D0164A20F48000224041F46F
:100E50008001024314F4006F08BF4FF4004003D038
:100E60000DE04FF48050ABE7D8F8503013F0400F4E
:100E700001D1401EF8D121F4006122F40062C8F8CB
:100E80006010C8F87020BDE8F0411020FFF7FEB9EF
:100E900000E00F400000FF70300000800300C0073A
:100EA000000040404FF0704181430CD00F49020FC9
:100EB00051F822100A6883B2C0F3044003FA00F02C
:100EC000104308607047C0F307230949C0B21944B2
:100ED00001F07043C1F3130143EA411141EA80007C
:100EE00040F000700122026070470000DC1C00002E
:100EF00000E60F40F0B58DB00024FFF7ADFB2F4F9B
:100F00000121384600F074F805460146384600F0E5
:100F10006DF815F0100F1CBF294D2A4E49D03846E8
:100F200000F05EF828557078401C7070601CC4B2E8
:100F3000302CF4D3224800F095F870780024302843
:100F400091BF347001203070747070783028FDD3F8
:100F5000002009A92A1852780A54401CC0B2092856
:100F6000F8D319A2B4213220FFF7A8FC09AAB421B2
:100F70007220FFF7A3FC002069462A18127B0A544E
:100F8000401CC0B22328F8D312A2C8213220FFF798
:100F900095FC6A46C8218A20FFF790FC71780020F2
:100FA000002904D92C54401CC0B28142FAD8747074
:100FB0003470FFF756FB0DB0F0BD000000E00040BC
:100FC0001C060020F8050020524649445F49443A77
:100FD00000000000524649445F56616C75653A0056
:100FE000816911F0100FFBD10068704741647047B0
:100FF000002914BF006CC06B704700F001B80000FE
:101000002DE9F0414FF080750F46696CDFF848809C
:101010000446096958F824008847002808BFBDE83D
:10102000F0810E480E4E50F824007060696C58F83C
:10103000240089698847686C006E8047696960236D
:101040003A46D1F814C001467068E0476869C16942
:101050007068BDE8F04108470C1C0000EC1B000064
:10106000FC0500200FB42DE9F04F87B011AE1098A9
:101070000078002802BF07B0BDE8F00F5DF814FB50
:101080000DF1080BDFF8ECA24FF08079109F0025DE
:10109000785D25281CBF00286D1CF9D10024002D87
:1010A00013D9385D0A2806D1D9F814000D21026839
:1010B000DAF804009047D9F81400395D0268DAF8CC
:1010C00004009047641CAC42EBD310982844109065
:1010D0000178252940F04381401C00244FF0200C6A
:1010E0001090109911F8010B1091382830D014DCB1
:1010F00033282DD008DC252800F0078130281CBFBC
:101100003128322824D01AE0342818BF35281FD0BF
:10111000362818BF37281BD011E070287ED008DC95
:10112000392815D0582879D063281ED0642838D0A3
:1011300005E0732841D0752871D078286ED0052736
:101140008DA50024285D0A2840F0FE8000F0F5B847
:1011500011F8010C302804BF002C4FF0300C04EBC8
:101160008401490030394418BBE756F8040B0127C5
:101170006D4600240090285D0A2806D1D9F8140095
:101180000D210268DAF804009047D9F81400295DAF
:101190000268DAF804009047641CBC42EBD300F00C
:1011A000DEB856F8040B002500900028BDBF404271
:1011B0000123009000230A2151E056F8048B0027F8
:1011C00018F80700002818BF7F1CF9D10025002F50
:1011D00015D918F805000A2806D1D9F814000D21F0
:1011E0000268DAF804009047D9F8140018F80510DE
:1011F0000268DAF8040090476D1CBD42E9D3BC4296
:101200007ED9E01BA0F101087AD001275CA500245B
:10121000285D0A2809D1D9F8140001E019E012E08C
:1012200002680D21DAF804009047D9F81400295D0E
:101230000268DAF804009047641CBC42E8D3B8F1B5
:101240000108E2D28BE056F8040B00250A21009039
:1012500004E056F8040B0025102100900023009FA5
:10126000012000FB01F2BA429CBFB2FBF1F88045BD
:1012700004BF1046641EF4D043B1641EBCF1300FAD
:1012800004D12D220BF805206D1C0023A21E0E2A6E
:1012900006D2621E04D00BF805C06D1C521EFAD196
:1012A0001BB12D220BF805206D1C002818BF354BF3
:1012B00010D0B7FBF0F2B2FBF1FC01FB1C22D3F81B
:1012C00000C0B0FBF1F01CF802200BF805206D1CEB
:1012D0000028EED1002402AF002D40D9385D0A2845
:1012E00006D1D9F814000D210268DAF804009047FD
:1012F000D9F81400395D0268DAF80400904700E07C
:101300002DE0641CAC42E9D329E04D1E01270024E6
:10131000285D0A2806D1D9F814000D210268DAF8F0
:1013200004009047D9F81400295D0268DAF8040037
:101330009047641CBC42EBD311E0D9F814000D2196
:101340000268DAF804009047D9F81400295D0268B1
:10135000DAF804009047641CBC42FFF4F3AE109826
:10136000007800287FF492AE07B0BDE8F00F5DF87A
:1013700014FB0000FC0500204552524F52000000B3
:1013800020000000E81B000002E008C8121F08C18E
:10139000002AFAD170477047002001E001C1121FF6
:1013A000002AFBD1704700002DE9F05F4FF08074F8
:1013B000606C006E804740F6B831B0FBF1F5606CB0
:1013C0008169C2488847606C8169C1488847606C00
:1013D0008169C0488847606C8169BF488847606CF4
:1013E0008169BE488847606C8169BD488847606CE8
:1013F0008169BC488847206AFF21C26B4FF04020BA
:101400009047206ADFF8E092FF21C26B4846904780
:10141000206ADFF8D8A20421C26B50469047206AA8
:101420000521C26BB2489047206A0A21C26BB048BE
:101430009047206ADFF8BCB24021C26B5846904703
:10144000206A00220421036850469847AB4EAA4FF9
:10145000376006F104088020C8F80000206A802167
:10146000C26B4846904737600020C8F800003060E3
:10147000206A04221146036850469847A04F012075
:1014800041F643183870C7F80C80206A0022082102
:10149000036897489847206A4022114603685846D7
:1014A0009847616C05EB85008000D1F888100646EE
:1014B0008847206A00224021036858469847616C9B
:1014C0003046D1F888108847206A402211460368C8
:1014D00058469847206A082211460368844898476E
:1014E000206A01221146036881489847206A022237
:1014F000114603687E489847606C05EB8506D0F876
:10150000881030468847206A0022082103687848FE
:101510009847F86840450BD14FF4F07078604FF46D
:101520008870B8602C2038742A2078742B20B87406
:101530002B2000F0E7F8002000F0F6F8606CD0F8FF
:10154000881030468847E22000F0DCF81D2000F0CB
:10155000EBF8022000F0E8F8042000F0E5F8E020C5
:1015600000F0D0F8012000F0DFF8606CD0F88810AF
:1015700028468847E02000F0C5F8032000F0D4F8A2
:10158000606CD0F8881030468847012000F0BAF827
:10159000606CD0F8881030468847E62000F0B2F83A
:1015A000002000F0C1F8D92000F0BEF8162000F0AD
:1015B000BBF8B02000F0A6F8202000F0B5F800201D
:1015C00000F0B2F8012000F0AFF8DF2000F0ACF836
:1015D000012000F0A9F80F2000F0A6F8002000F08C
:1015E000A3F8B42000F08EF8022000F09DF813203C
:1015F00000F09AF8002000F097F82B2000F094F803
:101600000A2000F091F8002000F08EF8082000F089
:101610008BF8002000F088F8B62000F073F8012065
:1016200000F082F8202000F07FF8002000F07CF825
:101630000C2000F079F80A2000F076F8002000F085
:1016400073F8042000F070F8BA2000F05BF8052071
:1016500000F06AF8B82000F055F8072000F064F8B0
:10166000012000F061F8362000F04CF8002000F076
:101670005BF8616C32206843D1F888108847BE203F
:1016800000F040F8062000F04FF8802000F04CF801
:10169000012000F049F8F02000F046F8002000F0AA
:1016A00043F8002000F040F8D02000F02BF80D2087
:1016B00000F03AF8F02000F025F8032000F034F8AC
:1016C000BDE8F05F292000F01DB8000001000020F7
:1016D000040000200800002010000020400000202E
:1016E00000010020200000200070004000D00340D6
:1016F00000400240005002404B434F4C20750040D8
:1017000008060020054900220A61054B1A60054BB6
:10171000C3F8FC038A6002208860704700400240E2
:10172000FC43004000700040064904220A61064B59
:10173000020A1A60054A1060002088600220886052
:101740007047000000400240FC430040FC73004032
:1017500086B000200490FEF71DFEFEF723FE4048F1
:10176000FFF7EAFA0320FEF739FFFFF7BDF8FEF7AF
:101770007DFFFFF719FEE0212720FFF7B5F90020D4
:10178000FEF78EFF40F20F1340F2DF12052100201A
:10179000FFF70AF84FF485734FF4ED72122105201C
:1017A000FFF702F82FA206219620FFF787F84020C6
:1017B000FFF778FBFEF7DAFE002821D00020FEF7C5
:1017C000CBFE044610F0080F05D096212BA2084648
:1017D000FFF774F80DE014F0010F05D096212BA24D
:1017E0000846FFF76BF804E096212CA20846FFF7A5
:1017F00065F814F0090F03D0012104A8FEF778FE64
:10180000FFF782F9FEF79EFE28A16846049A00F0D1
:1018100061F86A4664219620FFF750F8274D0524A9
:10182000224627A1684600F055F86A463C219620DA
:10183000FFF744F82846FEF729FD641EF0D104980E
:101840000121401C049004A8FEF764FE1020FEF75E
:101850009FFEFEF793FE41F28830FEF717FDFEE78C
:10186000403D80072D2D544D3443313233472050B5
:101870006C6174666F726D2D2D00000057616B6591
:101880002043617573653A20574B000057616B65C3
:101890002043617573653A205254430057616B656C
:1018A0002043617573653A20525354004E562044CC
:1018B0006174612020203A202564000015287F00F3
:1018C000456E74657220486962203A202564207351
:1018D000000000000FB44FF6FF7110B504AB039A7F
:1018E00000F004F810BC5DF814FB00002DE9F04F87
:1018F0004FF0000C002918BF491E14784FF0000B60
:10190000002C00F065810025545D252C1CBF002CA7
:101910006D1CF9D18D428CBF0E462E464FF000044F
:1019200003D811E00755641C761E3EB1175D002FE9
:10193000F8D100F804B0641C761EFAD108440021E6
:101940000DE00755641C761E3EB1175D002FF8D1DF
:1019500000F804B0641C761EFAD12844491B2A44BE
:10196000AC441478252C40F02F81521C00244FF0F9
:10197000200912F8015B382D31D014DC332D2ED024
:1019800008DC252D00F0F780302D1CBF312D322DC5
:1019900025D01AE0342D18BF352D20D0362D18BF94
:1019A000372D1CD011E0702D7CD008DC392D16D0DD
:1019B000582D77D0632D1FD0642D25D005E0732DD1
:1019C0002DD0752D79D0782D7BD0052983A72CBFFC
:1019D00005250D46002480F0DB8000F0E8B812F801
:1019E000015C302D04BF002C4FF0300904EB84045F
:1019F0006400303C2C44BCE753F8044B00297DD0F4
:101A000000F8014B491EBCE053F8047B002FBABF1D
:101A10007F424FF001084FF000080A2656E053F8C5
:101A2000048B002518F80560002E18BF6D1CF9D135
:101A3000AC4284BF661BB4448D4284BF0E46002472
:101A400003D80FE00755641C761E46B118F80470E1
:101A5000002FF7D100F804B0641C761EFAD10844B8
:101A6000002128E081462F46002603E009F806A061
:101A7000761C7F1E4FB118F806A0BAF1000FF5D101
:101A800009F806B0761C7F1EFAD1491B09EB050048
:101A9000AC4210D9641B8C4288BF0C466142641E64
:101AA000661C01E00DE008E018BF202603D000F816
:101AB000016B641EFBD2AC4486E053F8047B0A261B
:101AC00002E053F8047B10264FF00008012505FBC7
:101AD00006FABA459CBFBAFBF6FEAE4504BF5546B2
:101AE000641EF4D0B8F1000F1CBF641E00290DD095
:101AF000B9F1300F0AD14FF02D0800E041E000F8B5
:101B0000018B491E0CF1010C4FF00008A4F1020EEC
:101B10004FF6FE7AD64509D2641E07D011B100F8FF
:101B2000019B491E0CF1010C641EF7D1B8F1000FA6
:101B300018BF002905D02D2400F8014B491E0CF1D7
:101B4000010C002D18BFDFF89C803DD061B1B7FBC0
:101B5000F5F4B4FBF6F906FB1944D8F80090491ED9
:101B600019F8044000F8014BB5FBF6F50CF1010C37
:101B7000002DEBD128E0002918BF12F8014C7FF4AA
:101B80003FAF0CF1010C1FE00655641C6D1E08D020
:101B90003E5D002EF8D125B100F804B0641C6D1E26
:101BA000FAD1401D491F0DE00655641C6D1E3DB164
:101BB0003E5D002EF8D100F804B0641C6D1EFAD111
:101BC000084400210CF1050C1478002C7FF49BAE26
:101BD00080F800B06046BDE8F08F00004552524FDB
:101BE000520000002C1C0000841E000000C00040B9
:101BF00000D0004000E0004000F000400000014044
:101C0000001001400020014000300140001800F0A9
:101C1000011800F0021800F0031800F0041800F09A
:101C2000051800F0061800F0071800F0841E0000E8
:101C300000001F003B005A0078009700B500D40058
:101C4000F300110130014E010040004000800540CA
:101C500000500040009005400060004000A005409A
:101C60000070004000B005400040024000C0054048
:101C70000050024000D005400060024000E00540F6
:101C80000070024000F0054000D003400000064014
:101C900000100640001006400020064000200640CC
:101CA000003006400030064000400640004006403C
:101CB00000500640005006400060064000600640AC
:101CC00010E00F4014E00F401CE00F4010E00F4008
:101CD00040E00F4044E00F4048E00F4000E10F407B
:101CE00004E10F4008E10F4010E10F4014E10F4004
:101CF00018E10F4020E10F4024E10F4028E10F40A0
:101D000040420F0000201C0080841E00008025003F
:101D1000999E36000040380000093D0000803E00DA
:101D200000004B00404B4C0000204E00808D5B00BB
:101D300000C05D000080700000127A0000007D008D
:101D400080969800001BB7000080BB00C0E8CE0062
:101D5000647ADA000024F4000000FA0080A812017E
:101D6000002D310100366E0140787D010100100028
:101D7000003800F002001000013800F000011000EF
:101D8000003400F000021000013400F000041000E4
:101D9000023400F000011010003C00F000021010AE
:101DA000003C00F000041010003C00F00100002096
:101DB000000800F002000020010800F004000020EC
:101DC000020800F008000020030800F010000020C6
:101DD000040800F020000020050800F0400000206A
:101DE000060800F080000020070800F00001002035
:101DF000080800F000100010002000F00040001063
:101E0000012000F010001000004000F00001001060
:101E1000004400F000020010014400F01000001027
:101E2000001C00F020000010011C00F00100101048
:101E3000000400F002001010010400F00400101073
:101E4000020400F008001010030400F0010000106C
:101E5000001800F002000010011800F0040000104B
:101E6000021800F000200020000C00F001001020FB
:101E7000002800F008000000000000F00010100032
:101E8000010000F030313233343536373839616291
:101E90006364656600000000B81E000000000020BA
:101EA00008060000E0020000B8210000080600203B
:101EB0004802000098130000110219F84A08012195
:101EC000331818E5486C241228082424247F1212A1
:101ED0001204392F280C1C2A2A0A0C1828282A2A0E
:101EE0001C3611500C22251515152A58545454220D
:101EF0001A0C2930080A76252911916EC5060604A8
:101F0000034D402010107125101020402B02040AB0
:101F100029015D08080402913D6B1C1C6B5C79A1D2
:101F20004A7FA3D1A95B0213FE4306063D804040D1
:101F300020743C040402604C182442012A24F01945
:101F40005F4A0E905408083E1A3C1B19326D080473
:101F5000427E105009201820404042221C500C2084
:101F60003028242422227E2020788F7E0202021A2A
:101F700026202B38241089606C7E2222F379603A67
:101F80002485523C390B4E64584040244029133973
:101F90003A490649A449063308042A409C870204AA
:101FA000081020405A7F0451491B392569701A4690
:101FB0000F6A10501D1C225A55016A2DB0500C0892
:101FC00008181414243C224242E71E1F2222221E1B
:101FD0000E5442221F2D7C4242010169302A1F1CEF
:101FE00029015920B80C3F4212121E12120242421D
:101FF0003F104C020207801B22223E5C71212240CE
:102000002AE73C2A7E0549706B3E08014A3E707AF9
:10201000100133110F500C7722120A0E0A121222ED
:1020200022771A075A39014A42F31B7736012A2AC6
:1020300001526B580CE346464A4A5252526262477A
:10204000F04A410159802A3F7B2A3E4149A059204C
:102050006E4D53321C60202A3E6F4B42C7901808C9
:102060004242020418204016516B7F49B099D03982
:10207000016A3C10500922242414141808081B6B10
:1020800049015F55553622222220480A2424181877
:1020900018242442E7C09D2222141450300C7E21C3
:1020A00020101008040442423F6A786D29013278FA
:1020B0001D020204040B1008101020202040409B39
:1020C0001E1001221E031C384412FF4A0695F150CF
:1020D000083C4278444242FC1F030202021A26CF07
:1020E00093261A1B3844155344382D604040402E27
:1020F0009C4264D840567E0202423C3EF08808086A
:102100007EAF923E38087C22221C023C422229608B
:102110001B3A46405342E7230C0C9A0E301B3030DA
:102120007019DD19011A22D13930500872120A16BD
:10213000122277492CC9602B7F920192B79A3B609B
:1021400049A0290149A0412A1BE075221E02073936
:10215000D075447840E01C774C04018A1FC06E4261
:10216000023C404270197A398019A9712A635F9341
:1021700062DC9008E74224241408089008EB4949DF
:1021800055552222C8087624181818246E306C1869
:1021900008089030087E22100808447E2BC02001D9
:1021A0003A10061320C0DA1001113A068A192E29B6
:0821B000011206041D0C32C2ED
:04000005000002797C
:00000001FF
