:020000040000FA
:10000000280200206D02000071020000730200004F
:10001000750200007502000075020000000000007B
:100020000000000000000000000000007502000059
:10003000750200000000000075020000750200005B
:1000400075020000750200007502000075020000D4
:1000500075020000750200007502000075020000C4
:1000600075020000750200007502000075020000B4
:1000700075020000750200007502000075020000A4
:10008000750200007502000075020000DD1000001E
:100090007502000075020000750200007502000084
:1000A0007502000075020000750200007502000074
:1000B0007502000075020000750200007502000064
:1000C0007502000075020000750200007502000054
:1000D0007502000075020000750200007502000044
:1000E0007502000075020000750200007502000034
:1000F0007502000075020000750200007502000024
:100100007502000075020000750200007502000013
:100110007502000075020000750200007502000003
:1001200075020000750200007502000075020000F3
:1001300075020000750200007502000075020000E3
:1001400000000000000000000000000000000000AF
:1001500075020000750200007502000075020000C3
:10016000000000000000000000000000000000008F
:10017000000000000000000000000000000000007F
:10018000000000000000000000000000000000006F
:10019000000000000000000000000000000000005F
:1001A000000000000000000000000000000000004F
:1001B0007502000075020000750200007502000063
:1001C0007502000075020000750200007502000053
:1001D0007502000075020000750200007502000043
:1001E0007502000075020000750200007502000033
:1001F0007502000075020000750200007502000023
:100200007502000075020000750200000000000089
:100210007502000075020000750200007502000002
:1002200075020000750200007502000075020000F2
:1002300075020000750200007502000075020000E2
:1002400075020000750200007502000075020000D2
:1002500075020000750200007502000075020000C2
:1002600075020000750200007502000000F004B87D
:10027000FEE7FEE7FEE70000DFF80CD000F01CF818
:100280000048004791140000280200200138FDD1E9
:100290007047D2B201E000F8012B491EFBD2704733
:1002A0000022F6E710B513460A4604461946FFF742
:1002B000F0FF204610BD0000064C074D06E0E06848
:1002C00040F0010394E8070098471034AC42F6D39D
:1002D000FFF7D6FF3419000054190000D0F800349D
:1002E00012F0010F14BF0B438B43C0F8003412F01F
:1002F000020FD0F8202414BF114322EA0101C0F8F4
:1003000020147047D0F800C512F0010F14BF4CEA5A
:10031000010C2CEA010CC0F800C5D0F804C512F09D
:10032000020F14BF4CEA010C2CEA010CC0F804C502
:10033000D0F808C512F0040F14BF4CEA010C2CEAE7
:10034000010CC0F808C512F0080FD0F8182514BF2A
:100350000A438A43C0F81825D0F80C2513F0010F82
:1003600014BF0A438A43C0F80C25D0F8102513F0B7
:10037000020F14BF0A438A43C0F81025D0F8142591
:1003800013F0040F14BF0A438A43C0F81425D0F8B1
:100390001C2513F0080F14BF0A438A43C0F81C251C
:1003A000D0F82825002B0CBF114322EA0101C0F828
:1003B000281570470F4AC0F30741D26E01238B40C6
:1003C0001A420D4A1ABF02EBC1014A6852F83120A5
:1003D000C0F3072102F22C53D2F82C254FF00F0C5A
:1003E0000CFA01FC00F00F0022EA0C0288401043D6
:1003F0001860704700E00F40E015000030B504467B
:100400000D460222FFF76AFF29462046BDE830402C
:100410000B230122FFF776BF30B504460D460222BA
:10042000FFF75CFF29462046BDE830400823012243
:10043000FFF768BF10B50B4800F028FE0A4800F02F
:1004400025FE0A48FFF7B6FF0948FFF7B3FFC021B2
:100450000848FFF7E1FF4FF41651032000F074FE47
:1004600010BD000004000020031800F00118020075
:10047000011C0200006000401649042804BF0868FF
:1004800040F4803018D0052804BF086840F40030DC
:1004900012D0062812D00F2815D0102838BF704768
:1004A000103800F01F01012202FA01F142090A4846
:1004B00050F822000160704708607047086840F4F7
:1004C0008020086070474FF0E020016941F0020190
:1004D0000161704724ED00E00C17000010B5604882
:1004E00000F03FF95F4800680A2806D2DFE800F014
:1004F0000506223A4653606D89A1AEE05A4800686D
:10050000017859480068401C574B1860544800F067
:10051000BAF856480068401E544908600121504806
:1005200000F0A8F851480068012802D102204D4986
:10053000086092E04C48006801784B480068401C15
:10054000494B1860464800F09EF848480068401E35
:10055000464908600521424800F08CF804204149D2
:1005600008607AE03E4800F090F830B93C4800F06E
:1005700087F800203B4908606FE000BF012250214E
:10058000374800F0FCF80721354800F073F80320E5
:100590003449086061E001225021314800F0EFF851
:1005A00007212F4800F066F809202E49086054E022
:1005B000012250212A4800F0E2F80B21284800F0DF
:1005C00059F807202749086047E0254800F058F807
:1005D00025490968087024480068401C22490860C1
:1005E00022480068401E2149086009211C4800F08B
:1005F00041F81E480068022802D108201949086005
:100600002BE0174800F03CF81749096808701648B5
:100610000068401C1449086014480068401E1349D3
:10062000086005210E4800F025F809200D490860F2
:1006300013E00B4800F024F80B49096808700A48D9
:100640000068401C0849086008480068401E0749C7
:10065000086000200349086000BF00BF10BD000013
:100660001400002010000020080000200C000020D2
:1006700001607047027B02F0F0020A430273704788
:100680000146887B7047817370470146C87B08B17B
:100690000020704701F10C0000F0704040F0007243
:1006A00001F10C00C0F3130042EA401040F01400C6
:1006B000007808B1042000E0002001F10C0202F0F3
:1006C000704242F0007301F10C02C2F3130243EADC
:1006D000421242F0180212780AB1082200E0002209
:1006E0001043D6E770B50446A288C2F3870162685A
:1006F000100B00034FF08072126A53680122984772
:10070000A288C2F387016268100B00034FF0807269
:10071000126A092355690422A847FF20616808600E
:100720002289C2F38701A268100B00034FF0807288
:10073000126A5368012298472289C2F38701A2688E
:10074000100B00034FF08072126A092355690422CE
:10075000A847FF20A16808600020A0742073E07300
:1007600070BD00218174704701214174704701EB15
:1007700082034360704701EB82038360704730B5AA
:10078000417382B1012400F10C0303F0704343F084
:10079000007500F10C03C3F3130345EA431343F060
:1007A0001C031C700FE0002400F10C0303F07043E5
:1007B00043F0007500F10C03C3F3130345EA431340
:1007C00043F01C031C7030BD10B50446E07B1A28B2
:1007D0007DD2DFE800F00D8B919992A493ACB2B773
:1007E0009AF9F7F69BFAF4F39CFBF1A5949D95F02A
:1007F00004F10C0000F0704040F0007104F10C00B6
:10080000C0F3130041EA4010007901280ED160685E
:10081000006810B10520E07344E0A068006810B9DA
:100820000120E0733EE00320E0733BE004F10C00A4
:1008300000F0704040F0007104F10C00C0F31300B0
:1008400041EA40100078012819D10020207404F1F9
:100850000C0000F0704040F0007104F10C00C0F397
:10086000130041EA401040F01C00007810B90D2040
:10087000E07317E00020A0731120E07312E004F190
:100880000C0000F0704040F0007104F10C00C0F367
:10089000130041EA401040F008000078012801D11F
:1008A0001520E073E07B00B3002104F10C0000F0A0
:1008B000704040F0007204F10C00C0F3130042EAF3
:1008C000401040F01400017004F10C0000E003E25D
:1008D00000F0704040F0007204F10C00C0F313000F
:1008E00042EA401040F018000170F5E1FF20A168D5
:1008F00008600220E073EFE100BF00BF00BF00BF4F
:10090000E07B401CE073E7E100BF00BF00BF00BF19
:10091000FF2061680860E07B401CE073DCE100BF01
:100920000020A1680860E07B401CE073D4E1002057
:10093000616808600820E073CEE10020207409207F
:10094000E073C9E1207C07280DDA607B217CC1F1CE
:10095000060201219140084008B1FF2000E000207C
:10096000A168086024E0207C072815D104F10C0060
:1009700000F0704040F0007104F10C00C0F313006F
:1009800041EA401040F01C00007808B1FF2000E070
:100990000020A16808600BE02289C2F38701A268E9
:1009A000100B00034FF08072126A536800229847C0
:1009B0000A20E07390E177E136E107E0FBE0A8E090
:1009C00003E086E009E0FFE700BF00BF6068006861
:1009D00010B1E07B401CE0737EE1207C08286FD1E1
:1009E000A068006878B1012104F10C0000F07040AB
:1009F00040F0007204F10C00C0F3130042EA401012
:100A000040F0140001702289C2F38701A268100B24
:100A100000034FF08072126A536801229847002148
:100A200004F10C0000F0704040F0007204F10C0082
:100A3000C0F3130042EA4010017104F10C0000F011
:100A4000704040F0007104F10C00C0F3130041EA63
:100A500040100078012819D10020207404F10C0006
:100A600000F0704040F0007104F10C00C0F313007E
:100A700041EA401040F01C00007810B90D20E073EE
:100A800023E00020A0731120E0731EE004F10C00AD
:100A900000F0704040F0007104F10C00C0F313004E
:100AA00041EA401040F008000078012802D11520EA
:100AB000E0730AE00120A0740020E07305E0FFE786
:100AC000207C401C20740920E073002061680860CD
:100AD00002E1207C08280DDAA07B217CC1F107020D
:100AE00001219140084008B1FF2000E00020A168EA
:100AF00008600BE02289C2F38701A268100B000393
:100B00004FF08072126A5368002298470E20E073FB
:100B1000E2E0207C082845D1A068006878B1012176
:100B200004F10C0000F0704040F0007204F10C0081
:100B3000C0F3130042EA401040F01800017022890F
:100B4000C2F38701A268100B00034FF08072126A93
:100B5000536801229847002104F10C0000F0704016
:100B600040F0007204F10C00C0F3130042EA4010A0
:100B7000017004F10C0000F0704040F0007104F1CD
:100B80000C00C0F3130041EA401040F00800007868
:100B9000012802D11520E07309E00120A074002093
:100BA000E07304E0207C401C20740D20E0730020E2
:100BB0006168086090E0207C60B92289C2F38701F7
:100BC000A268100B00034FF08072126A5368002273
:100BD000984726E0207C082823D12289C2F3870188
:100BE000A268100B00034FF08072126A5368012252
:100BF000984704F10C0000F0704040F0007104F1DF
:100C00000C00C0F3130041EA401040F00C000078E3
:100C1000012803D10020A168086002E0FF20A1683C
:100C200008601220E07357E0207C082826D10021BC
:100C300004F10C0000F0704040F0007204F10C0070
:100C4000C0F3130042EA4010017004F10C0000F000
:100C5000704040F0007104F10C00C0F3130041EA51
:100C6000401040F008000078012802D11520E07300
:100C700016E00120A0740020E07311E0A17BA068C1
:100C8000006828B1207CC0F107020120904000E0FC
:100C900000200143A173207C401C20741120E073CC
:100CA00000206168086017E0FF20A168086000214B
:100CB00004F10C0000F0704040F0007204F10C00F0
:100CC000C0F3130042EA401040F008000170012018
:100CD000A0740020E07300BF00BF01E020688047DF
:100CE000A07C617C084010B120680028F6D110BDBE
:100CF000DFF800C230B4DCF86020DCF8701011F0CE
:100D0000004F14BF01F0700002F030007A4C302820
:100D100008BF47F2305065D007DA98B1774D784B6D
:100D2000102816D020280AD138E0602808BF4FF4D8
:100D3000800057D0702808BF4FF4004052D030BC1C
:100D4000002070476F4B02F4F86003EB101000684E
:100D500048E0DCF8000010F0E04F1BD0DCF80000A9
:100D60002040B0F1805F15D0DCF800002040A842A0
:100D700004D1DCF8000080B202280DD0DCF80000BD
:100D80002040984204D1DCF800000004000C03D09D
:100D90005D4827E05D4825E05D4823E0DCF8000081
:100DA00010F0E04F1BD0DCF800002040B0F1805F75
:100DB00015D0DCF800002040A84204D1DCF8000087
:100DC00080B202280DD0DCF800002040984204D107
:100DD000DCF800000004000C03D04E4802E04E484E
:100DE00000E04E4811F0004F02D011F4006F05D022
:100DF00001F0004302F400652B4345D1DCF80030DC
:100E00002340A3F18055B5F5A0251AD1DCF8603157
:100E1000DCF864C10CF01F04CCF3042C641C0CF14E
:100E2000010C14FB0CFC4FEA4C0CB0FBFCF0C3F3C0
:100E3000090C0CFB00FCC3F3892358430CEB9020F6
:100E400020E0DCF86430DCF8005015F0E04F36D0DC
:100E5000DCF800C00CEA040CBCF1805F2FD04FEA34
:100E6000C36C4FEA9C6CC3F348140CF1020C604352
:100E7000B0FBFCF013F4804F18BF400813F4004F90
:100E800018BF800842F4800212F4800F04BF30BC07
:100E9000704711F0004F25D011F0804F08D011F4A9
:100EA000006F17D001F0004302F400621A4311D022
:100EB000C1F3C551491CB0FBF1F030BC7047C3F31E
:100EC000481C0CF1020C00FB0CF003F01F0C0CF1A1
:100ED000020CCDE74000C1F38651491CB0FBF1F094
:100EE00030BC7047C2F3C351491CB0FBF1F030BCB9
:100EF0007047000000E00F400000FF70000001108C
:100F0000000003109C1700000024F400C0E1E4007E
:100F1000001BB70000093D0070383900C0C62D0025
:100F20002DE9F041DFF850810446D8F8000010F0B8
:100F3000E04F06D0D8F8000050490840B0F1805F7B
:100F400004D114F0004F18BFBDE8F081D8F860104C
:100F5000D8F8700021F4800141F4006540F4006687
:100F6000C8F86050C8F8706015F0020F02D014F095
:100F7000020F04D025EA040010F0010F16D064F02F
:100F800003000540C8F8605016F0004F07D006F087
:100F90007000302859D07020B04356D002E0302085
:100FA000A84352D04FF40020FFF770F925F4FE60FB
:100FB00004F4FE6141EA0007314926F0700020F098
:100FC00000402140084304F0080140EAC105C8F888
:100FD0006070C8F870501020FFF758F927F440509F
:100FE00004F44051014325F4005004F4005210432E
:100FF0004022C8F8582010F0004F08BFC8F8601011
:10100000C8F8700018BFC8F8601021F003011D4A2D
:1010100021F0F8612240114320F0FC5004F0FC5212
:10102000104314F0804F08BF20F0804206D0164ACB
:1010300020F48000224041F48001024314F4006F48
:1010400008BF4FF4004003D00DE04FF48050ABE7F1
:10105000D8F8503013F0400F01D1401EF8D121F4E0
:10106000006122F40062C8F86010C8F87020BDE882
:10107000F0411020FFF70AB900E00F400000FF70B8
:10108000300000800300C007000040404FF0704176
:1010900081430CD00F49020F51F822100A6883B225
:1010A000C0F3044003FA00F0104308607047C0F337
:1010B00007230949C0B2194401F07043C1F3130179
:1010C00043EA411141EA800040F0007001220260D1
:1010D000704700007817000000E60F4010B50121AE
:1010E000034800F022F80348FFF76EFB10BD000034
:1010F0000000034014000020C26822F0010222F424
:101100008072C2600A0E0260CAB242F4007242608B
:10111000C1F3072141F4007181607047C26840F259
:10112000011319401143C1607047416270478269E1
:1011300011438161704711F0FF0F18BF826211F4F3
:101140007F4F18BFC262704770B504460D462946EE
:10115000204600F001F870BD2DE9F04104460D462F
:10116000184A52F824004FF08072526C1169884777
:1011700008B9BDE8F081144850F82400134908600C
:10118000104A52F824004FF08072526C91698847DF
:101190004FF08071496C086E804707464FF08070B1
:1011A000406960232A463946466908480068B047C6
:1011B0004FF080704069C16904480068884700BFEB
:1011C000D7E70000C0150000A015000000000020B7
:1011D0000FB42DE9F04786B00FA8009015E1002468
:1011E00000E0641C0E98005D252803D00E98005D79
:1011F0000028F6D121460E9800F01AF90E982044E6
:101200000E900E9800782528E8D10E98401C0E907C
:1012100000254FF0200A00BF0E9810F8011B0E9019
:10122000382930D014DC332928D008DC252976D0A1
:10123000302920D031291FD0322971D11DE0342925
:101240001DD035291CD036291BD03729F5D119E0FE
:10125000702975D008DC392916D058296FD0632938
:1012600022D06429E9D12AE073293CD0752958D0CD
:101270007829E2D162E000BF00BF00BF00BF00BF1D
:1012800000BF00BF00BF00BF0E9810F8010C30284F
:1012900001D105B9824605EB850045000E9810F88E
:1012A000010C30380544B7E70098006805900098B5
:1012B000001D0090012105A800F0BAF8A4E00098F4
:1012C000006805900098001D0090002705980028F0
:1012D00005DA0598404205904FF0010801E04FF013
:1012E00000080A2637E0009850F8049B009000247C
:1012F00000E0641C19F804000028FAD12146484691
:1013000000F096F8A54209D92D1B03E0012144A065
:1013100000F08EF82800A5F10105F7D174E068E02F
:101320006DE00098006805900098001D009000276F
:101330000A264FF000080EE002E000E000BF00BF08
:101340000098006805900098001D00900027102666
:101350004FF0000800BF012401E074436D1E04FB40
:1013600006F00599884205D804FB06F0B0FBF6F0BC
:10137000A042F2D0B8F1000F00D06D1EB8F1000FFE
:1013800009D0BAF1300F06D12D2238467F1C01A9B1
:101390000A544FF00008012D0BD9102D09D26D1EF3
:1013A00005E038467F1C01A901F800A06D1E002D44
:1013B000F7D1B8F1000F04D02D2238467F1C01A9C7
:1013C0000A540FE00598B0FBF4F0B0FBF6F106FB11
:1013D0001100144909680A5C38467F1C01A90A54A7
:1013E000B4FBF6F4002CEDD1394601A800F020F84A
:1013F0000AE00E99481E012100F01AF804E00521C8
:1014000009A000F015F800BF00BF0E980078002872
:101410007FF4E5AE009006B0BDE8F0075DF814FB80
:10142000200000009C1500004552524F5200000061
:1014300070B505460E46002413E0285D0A2807D142
:101440004FF0807040690D2102680848006890479D
:10145000295D4FF080704069026804480068904739
:10146000641CB442E9D3204670BD00000000002097
:1014700002E008C8121F08C1002AFAD1704770475D
:10148000002001E001C1121F002AFBD170470000BB
:101490001CB52E48FFF744FD2D48FFF7F7FD2C48FB
:1014A0001E30FFF7F3FD2B48FFF7F0FD0C212A4813
:1014B000FEF7A4FF14212948FEF7F2FE2849274829
:1014C000FFF7D6F8042224492448FFF750F90822F0
:1014D00021492248FFF74FF92048FFF703F91F4839
:1014E000FFF742F922211F48FFF706FEFFF700FC35
:1014F00049F64041B0FBF1F52A46FF211948FFF7B4
:101500001AFE01211748FFF712FEFF211548FFF7C9
:1015100005FE2320FEF7B0FFFEF78CFF12A0FFF7B9
:1015200057FE19A0FFF754FE002408E0E0B20DF8C2
:1015300004001DF8041016A0FFF74AFE641C082CD6
:10154000F4D315A0FFF744FE00BFFEE7403D80073F
:101550000200002001001010005000401400002084
:10156000DD04000000000340536F667449324320DD
:1015700041746D656C2041543234433038412065EC
:1015800078616D706C650A0057726974653A000085
:1015900020253032780000000A00000020190000E9
:1015A00000C0004000D0004000E0004000F00040DB
:1015B00000000140001001400020014000300140C7
:1015C000001800F0011800F0021800F0031800F0F5
:1015D000041800F0051800F0061800F0071800F0D5
:1015E0000040004000800540005000400090054051
:1015F0000060004000A005400070004000B00540C1
:101600000040024000C005400050024000D00540AC
:101610000060024000E005400070024000F005401C
:1016200000D00340000006400010064000100640B5
:1016300000200640002006400030064000300640F2
:101640000040064000400640005006400050064062
:101650000060064000600640000700000006000031
:10166000000500000004000000030000000200006C
:1016700000010000000000000000000018ED00E084
:101680001CED00E020ED00E000E400E004E400E0F8
:1016900008E400E00CE400E010E400E014E400E002
:1016A00018E400E01CE400E020E400E024E400E0B2
:1016B00028E400E02CE400E030E400E034E400E062
:1016C00038E400E03CE400E040E400E044E400E012
:1016D00048E400E04CE400E050E400E054E400E0C2
:1016E00058E400E05CE400E060E400E064E400E072
:1016F00068E400E06CE400E070E400E074E400E022
:1017000078E400E07CE400E080E400E000E100E058
:1017100004E100E008E100E00CE100E010E100E09D
:1017200080E100E084E100E088E100E08CE100E09D
:1017300090E100E000E200E004E200E008E200E006
:101740000CE200E010E200E080E200E084E200E071
:1017500088E200E08CE200E090E200E010E00F4060
:1017600014E00F401CE00F4010E00F4040E00F403D
:1017700044E00F4048E00F4000E10F4004E10F401B
:1017800008E10F4010E10F4014E10F4018E10F4055
:1017900020E10F4024E10F4028E10F4040420F00BC
:1017A00000201C0080841E0000802500999E3600C9
:1017B0000040380000093D0000803E0000004B0062
:1017C000404B4C0000204E00808D5B0000C05D004F
:1017D0000080700000127A0000007D008096980062
:1017E000001BB7000080BB00C0E8CE00647ADA00BE
:1017F0000024F4000000FA0080A81201002D31013D
:1018000000366E0140787D0101001000003800F0C4
:1018100002001000013800F000011000003400F058
:1018200000021000013400F000041000023400F047
:1018300000011010003C00F000021010003C00F00D
:1018400000041010003C00F001000020000800F02F
:1018500002000020010800F004000020020800F04F
:1018600008000020030800F010000020040800F029
:1018700020000020050800F040000020060800F0CD
:1018800080000020070800F000010020080800F098
:1018900000100010002000F000400010012000F0B7
:1018A00010001000004000F000010010004400F0A3
:1018B00000020010014400F010000010001C00F0B5
:1018C00020000010011C00F001001010000400F0C6
:1018D00002001010010400F004001010020400F0D7
:1018E00008001010030400F001000010001800F0C0
:1018F00002000010011800F004000010021800F0AF
:1019000000200020000C00F001001020002800F052
:1019100008000000000000F000101000010000F0BE
:101920003031323334353637383961626364656655
:101930000000000054190000000000201400000006
:101940007014000068190000140000201402000048
:1019500080140000000000000000000000000000F3
:0819600000000000000000007F
:04000005000002797C
:00000001FF
