:020000040000FA
:10000000000200206D020000710200007302000077
:10001000750200007502000075020000000000007B
:100020000000000000000000000000007502000059
:10003000750200000000000075020000750200005B
:1000400075020000750200007502000075020000D4
:1000500075020000750200007502000075020000C4
:1000600075020000750200007502000075020000B4
:1000700075020000750200007502000075020000A4
:100080007502000075020000750200007502000094
:100090007502000075020000750200007502000084
:1000A0007502000075020000750200007502000074
:1000B0007502000075020000750200007502000064
:1000C0007502000075020000750200007502000054
:1000D0007502000075020000750200007502000044
:1000E0007502000075020000750200007502000034
:1000F0007502000075020000750200007502000024
:100100007502000075020000750200007502000013
:100110007502000075020000750200007502000003
:1001200075020000750200007502000075020000F3
:1001300075020000750200007502000075020000E3
:1001400000000000000000000000000000000000AF
:1001500075020000750200007502000075020000C3
:10016000000000000000000000000000000000008F
:10017000000000000000000000000000000000007F
:10018000000000000000000000000000000000006F
:10019000000000000000000000000000000000005F
:1001A000000000000000000000000000000000004F
:1001B0007502000075020000750200007502000063
:1001C0007502000075020000750200007502000053
:1001D0007502000075020000750200007502000043
:1001E0007502000075020000750200007502000033
:1001F0007502000075020000750200007502000023
:100200007502000075020000750200000000000089
:100210007502000075020000750200007502000002
:1002200075020000750200007502000075020000F2
:1002300075020000750200007502000075020000E2
:1002400075020000750200007502000075020000D2
:1002500075020000750200007502000075020000C2
:1002600075020000750200007502000000F004B87D
:10027000FEE7FEE7FEE70000DFF80CD000F00AF82A
:1002800000480047D9020000000200200138FDD1DB
:1002900070470000064C074D06E0E06840F001039F
:1002A00094E8070098471034AC42F6D3FFF7E8FF14
:1002B000100400002004000002E008C8121F08C15A
:1002C000002AFAD170477047002001E001C1121FD7
:1002D000002AFBD17047000000F046F8194880243E
:1002E00004601020FFF7D2FF18491748086018492A
:1002F000FF20086017494FF0000CC1F800C01649F4
:1003000008601649086040252026154B154A10271D
:10031000C3F8FC431046401EFDD1C3F8FC53114600
:100320001046401EFDD1C3F8FC630846401EFDD1B7
:10033000C3F8FC730846401EFDD1C3F8FCC3491E38
:10034000FDD1E5E708E60F404B434F4C20750240D6
:1003500000740240207402401C7502402475024063
:100360000070024040420F0028490A6E086F22F4D4
:10037000800242F4006240F400600A660867086E7A
:1003800020F0010008664FF40020401EFDD1086EE9
:100390000A6F20F4FE6040F4A8600866086F20F041
:1003A00070000867086F40F0004008674FF4004095
:1003B000401EFDD1886D40F040008865086F20F434
:1003C00000500867086E20F400500866086E20F0A0
:1003D000F86040F0F063086F20F0FE5040F0824C6F
:1003E0004FF400400A6D12F0400F01D1401EF9D1C8
:1003F00023F400622CF400600A660867002042F2D1
:100400001071401C8842FCD37047000000E00F4090
:10041000200400000000002000020000C8020000CC
:04000005000002797C
:00000001FF
